:020000040800F2
:1000000048070020890100085F160008AB140008AB
:100010005D1600088F0200084D1B0008000000005C
:10002000000000000000000000000000951600081D
:10003000DD03000800000000931600089716000872
:10004000A3010008A3010008A3010008A301000800
:10005000A3010008A3010008A3010008A3010008F0
:10006000A3010008A3010008A3010008A3010008E0
:10007000A3010008A3010008A3010008A3010008D0
:10008000A3010008A3010008A3010008A3010008C0
:10009000A3010008A3010008A3010008A3010008B0
:1000A000A3010008A3010008A3010008A3010008A0
:1000B000A3010008A3010008A3010008A301000890
:1000C000A3010008A3010008A3010008A301000880
:1000D000A3010008411B0008A3010008A3010008B8
:1000E000A3010008A3010008A301000800F002F822
:1000F00000F03AF80AA090E8000C82448344AAF188
:100100000107DA4501D100F02FF8AFF2090EBAE885
:100110000F0013F0010F18BFFB1A43F0010318473B
:10012000A81B0000C81B0000103A24BF78C878C183
:10013000FAD8520724BF30C830C144BF04680C60ED
:10014000704700000023002400250026103A28BF35
:1001500078C1FBD8520728BF30C148BF0B60704739
:100160001FB51FBD10B510BD00F058F81146FFF7C0
:10017000F7FF01F0FDFC00F076F803B4FFF7F2FFA3
:1001800003BC00F07DF8000009488047094800479B
:10019000FEE7FEE7FEE7FEE7FEE7FEE7FEE7FEE737
:1001A000FEE7FEE704480549054A064B7047000094
:1001B000F7160008ED00000848010020480700205D
:1001C00048030020480300204FF0000200B513460A
:1001D00094469646203922BFA0E80C50A0E80C5067
:1001E000B1F12001BFF4F7AF090728BFA0E80C5018
:1001F00048BF0CC05DF804EB890028BF40F8042B11
:1002000008BF704748BF20F8022B11F0804F18BF7D
:1002100000F8012B7047704770477047754600F033
:100220002BF8AE4605006946534620F00700854688
:1002300018B020B5FFF7B6FFBDE820404FF000062C
:100240004FF000074FF000084FF0000B21F00701BE
:10025000AC46ACE8C009ACE8C009ACE8C009ACE801
:10026000C0098D46704710B50446AFF300802046A4
:10027000BDE81040FFF781BF00487047E400002050
:1002800001491820ABBEFEE7260002007047FEE7DA
:100290002DE9F0411F46DDE90754069E1346582913
:1002A00047D1042845D2DFE800F002152332224668
:1002B0001946012001F0FAF822463946022001F0E1
:1002C000F5F822463146012001F0F0F82246294691
:1002D00002202AE022461946022001F0E7F82246D1
:1002E0003946012001F0E2F822463146022008E0BA
:1002F00022461946012001F0D9F82246394601204C
:100300000DE001F0D3F82246294601200DE02246F7
:100310001946022001F0CAF822463946022001F0AF
:10032000C5F8224631460120EBE7BDE8F04101F077
:10033000BDB800221946104601F0B8F8002239462F
:10034000104601F0B3F800223146104601F0AEF835
:10035000002229461046E8E72DE9F8439046DDE9FA
:1003600008540646002299464146104601F09EF880
:1003700000224946104601F099F80022294610460D
:1003800001F094F800222146104601F08FF84FF456
:100390000040114F00903B4600223146404601F09C
:1003A0009EF84FF4804000903B4604223146484678
:1003B00001F095F8781400903B4608223146284613
:1003C00001F08DF8B81400903B460C2231462046CF
:1003D00001F085F8BDE8F883000C0140704710B5C6
:1003E00090F821100022022905D00421816380F8B1
:1003F0002020012010BD01680B6823F00E030B6064
:1004000001680B6823F001030B6090F84030C46B67
:10041000012101FA03F3636080F8211080F82020A5
:10042000104610BD10B590F821100024022903D009
:100430000421816301243DE001680A6822F00E0274
:100440000A6001680A6822F001020A601A4A01681B
:10045000914201D1012121E0174A1432914201D188
:1004600010211BE0144A2832914201D1891515E070
:10047000114A3C32914201D189140FE00E4A5032A8
:10048000914202D14FF4803108E00B4A643291422C
:1004900002D14FF4801101E04FF08071064A083A12
:1004A0005160012180F82110002180F82010416B5B
:1004B00001B18847204610BD080002402DE9F84FE1
:1004C000DFF8B8910024A9F1040B23460F2709F1A6
:1004D000040AABF1040EC9E00125A5402A40AA4256
:1004E0007DD1674ED1F804C0ACEB0608B44532D0DC
:1004F00014DCBCF1030F3AD009DCBCF1000F2AD0A8
:10050000BCF1010F1CD0BCF1020F31D11DE0BCF1D8
:10051000110F17D0BCF1120F2AD119E0B8F5881FBE
:1005200019D006DCB8F5803F15D0B8F5801F1FD173
:1005300011E0B8F5001F0ED0B8F5041F18D10AE07D
:10054000CB6815E0CB681B1D12E0CB6808330FE0C9
:10055000CB680C330CE08B682BB1012B4FF00803F8
:1005600003D0456104E0042302E0056100E00023BC
:10057000FF2A01D8064601E000F104064FEA84058F
:1005800001D9A5F12005D6F8008007FA05FC28EA74
:100590000C0803FA05F548EA0508C6F800804D681E
:1005A000ED0062D5374DAE6946F00106AE61AD692A
:1005B00024F0030605F001050095334D06EB050C0C
:1005C000DCF80850A607360F07FA06F825EA0805F2
:1005D000DFF8B880404503D14FF0000817E044E051
:1005E000DFF8AC80404502D14FF001080FE0DFF8A2
:1005F000A480404502D14FF0020808E0DFF898805F
:10060000404502D14FF0030801E04FF0040808FA1A
:1006100006F848EA0508CCF808804D68D9F800606B
:10062000ED024D4601D5164300E096432E604D681D
:10063000DAF80060AD02554601D5164300E0964356
:100640002E604D68DBF80060AD035D4601D51643B2
:1006500000E096432E604D68DEF80060ED037546BD
:1006600001D5164300E096432E60641C0D682A46AF
:10067000E5407FF431AFBDE8F88F00000804014089
:10068000000011100010024000000140000801406D
:10069000000C014000100140001401400AB101614A
:1006A00070470904FBE700000148806870470000BC
:1006B000040000200248816802781144816070477C
:1006C00004000020074810B5016841F010010160E6
:1006D000032000F075F80F2000F006F800F024F871
:1006E000002010BD0020024070B50D4D04464FF4AF
:1006F0007A712878B1FBF0F00A490968B1FBF0F093
:1007000000F0DCFA48B9102C07D200222146501E16
:1007100000F036F800206C6070BD012070BD000054
:1007200004000020100000200C4808B5816941F049
:1007300001018161816901F001010091C16941F00C
:100740008051C161C06900F0805000900448416848
:1007500021F0E06141F00071416008BD00100240ED
:1007600000000140002809DB00F01F020121914038
:100770004009800000F1E020C0F80011704700003F
:10078000F0B40E4B1B680C46C3F30223C3F10705FC
:10079000042D00D90425191D072901D2002300E0EA
:1007A000DB1E012606FA05F1491E214099409E40B4
:1007B000761E16403143F0BC01F0C9B90CED00E0E3
:1007C000064900F0070208684FF6FF03184040EAA8
:1007D0000220034A10430860704700000CED00E05F
:1007E0000000FA052DE9F0470F46050061D0434EA1
:1007F000306800F00700B84209D2306820F00700E6
:1008000038433060306800F00700B84251D12868A2
:100810003B4C810712D5400703D5606840F4E06087
:1008200060602878000703D5606840F4605060601D
:100830006068A96820F0F000084360602878C0076D
:1008400028D06868012810D02168022810D08907B4
:1008500000292EDA616821F0030101436160FFF78E
:1008600023FF804641F288390DE021688903EFE7D4
:100870008901EDE7FFF718FFA0EB0801494502D910
:100880000320BDE8F0876068696800F00C00B0EBF9
:10089000810FEFD1306800F00700B8420BD9306803
:1008A00020F0070038433060306800F00700B8429D
:1008B00001D00120E5E72878400705D56068E968A0
:1008C00020F4E060084360602878000706D560687F
:1008D000296920F4605040EAC100606000F038F8F7
:1008E0006168084AC1F30311515CC84006490860B9
:1008F00006480068FFF7F8FE0020C2E7002002402B
:1009000000100240AE1C000810000020080000206B
:100910000448054900684968044AC1F30221515C52
:10092000C84070471000002000100240BE1C0008A4
:100930000448054900684968044AC1F3C221515C72
:10094000C84070471000002000100240BE1C000884
:100950000E4A51680E4801F00C03042B11D0082BED
:100960000FD10C48C1F38343C903C05C0AD5516859
:10097000084AC1F34041921E515C054A5043B0FB06
:10098000F1F07047044948437047000000100240EE
:1009900000127A009E1C000800093D002DE9F84F66
:1009A000040070D02078C04DC00749D06868C0F3FB
:1009B0008100012807D06868C0F38100022809D1AE
:1009C0006868C00306D52868800339D560680028A8
:1009D000E7D035E06068B0F5803F0BD010B1B0F5DE
:1009E000A02F11D0286820F480302860286820F4D7
:1009F000802002E0286840F480302860606890B170
:100A0000FFF752FE06460AE0286840F4802028607E
:100A1000F0E700BFFFF748FE801B642873D8286802
:100A20008003F7D50CE0FFF73FFE064605E000BF68
:100A3000FFF73AFE801B6428F0D828688003F7D4BB
:100A400020789A4E80074FF001094FF0000839D501
:100A5000686810F00C0F07D06868C0F381000228A6
:100A600009D16868C00306D42868800714D52069B6
:100A7000012808D110E02069B0B1C6F80090FFF756
:100A800013FE074605E00AE1FFF70EFEC01B022831
:100A9000C4D828688007F7D52868616920F0F80075
:100AA00040EAC10028600DE0C6F80080FFF7FCFDB9
:100AB000074604E0FFF7F8FDC01B022823D828688A
:100AC0008007F7D4207800072CD57948A169D9B1DF
:100AD000C0F80090FFF7E8FD074604E0FFF7E4FDEB
:100AE000C01B02280FD8686A8007F7D571484FF4F9
:100AF000FA510068B0FBF1F0009000BF0098411E71
:100B00000091FAD20EE080E0C0F80080FFF7CCFD43
:100B1000074604E0FFF7C8FDC01B022875D8686AC5
:100B20008007F7D42078400760D5E8690027C00027
:100B300008D4E86940F08050E861E869012700F0D6
:100B4000805000905C480168C90513D40168834651
:100B500041F480710160FFF7A7FD824606E000BF07
:100B6000FFF7A2FDA0EB0A0064284ED8DBF80000D6
:100B7000C005F5D5E06801280AD008B1052813D0D2
:100B8000286A20F001002862286A20F0040002E0B0
:100B9000286A40F001002862E06841F2883B98B181
:100BA000FFF782FD82460BE0286A40F004002862CD
:100BB000EEE700BFFFF778FDA0EB0A0159455AD8D0
:100BC000286A8007F6D50CE0FFF76EFD824605E047
:100BD000FFF76AFDA0EB0A0159454CD8286A800747
:100BE000F6D41FB1E86920F08050E861E06988B36D
:100BF0006968C1F38101022944D00228C6F86080E7
:100C000004D0FFF751FD044638E034E0FFF74CFD17
:100C1000074604E0FFF748FDC01B02282BD82868D0
:100C20008001F7D4206AB0F5803F05D16868A168DB
:100C300020F4003008436860D4E90801084369687B
:100C400021F4741108436860C6F86090FFF72CFD2A
:100C5000044606E025E000BFFFF726FD001B022842
:100C600009D828688001F7D51BE000BFFFF71CFDFD
:100C7000001B022802D90320BDE8F88F28688001F4
:100C8000F4D40EE00128F7D06868226A00F48031BD
:100C9000914204D1616A00F47010884201D00120B1
:100CA000EAE70020E8E700000010024000004242AE
:100CB00080044242100000200070004010B5401E29
:100CC000B0F1807F01D3012010BD4FF0E0246061BE
:100CD0000F21601700F03BFF0020A061072020617A
:100CE000002010BD10B590F83C20012A22D001222E
:100CF00080F83C20CA688C6822F4407222434C6819
:100D000022F4806222430C6822F4006222430C69C0
:100D100022F4805222434C6922F400522243C969D2
:100D2000002322F480420A4301684A6480F83C3080
:100D3000002010BD022010BD70B590F83C20012AA3
:100D400026D0012480F83C40022280F83D20036830
:100D50005A689D6822F070060A6832435A600D4B4B
:100D600002689A4208D0B2F1804F05D00A4B9A42ED
:100D700002D00A4B9A4204D1496825F080031943F6
:100D8000916080F83D40002180F83C10084670BD1D
:100D9000022070BD002C014000040040000800400B
:100DA00010B5040003D094F83D0010B107E0012015
:100DB00010BD002084F83C00204600F01FF80220FF
:100DC00084F83D00211D206800F096FC012084F885
:100DD000460084F83E0084F83F0084F8400084F820
:100DE000410084F8420084F8430084F8440084F809
:100DF000450084F83D00002010BD000008B50068E3
:100E00000649884208D10648816941F40061816140
:100E1000806900F40060009008BD0000002C0140D3
:100E20000010024070B5044690F83C0000250128EF
:100E300017D0012684F83C60022084F83D00206829
:100E4000826822F0770222F47F428260086850288C
:100E500038D00DDC20284FD005DC90B3102811D1FC
:100E60004AE0022070BD302846D040280AD13BE03D
:100E700060282FD070280DD0B0F5805F03D0B0F57A
:100E8000005F12D0012584F83D60002084F83C000A
:100E9000284670BDCB68D1E90121206800F06FFCC5
:100EA0002068816841F0770109E0CB68D1E9012130
:100EB000206800F064FC2068816841F48041816012
:100EC000E1E719E0CA684968206800F00DFD50218B
:100ED000206806E0CA684968206800F016FD6021B5
:100EE000206800F056FCCEE7CA684968206800F028
:100EF000FBFC40212068F4E7226801461046F0E739
:100F000000B585B000210091019102910391006824
:100F10000B49884212D10B48816941F0040181617B
:100F20008069694600F0040004904FF470600090FE
:100F30000220019003900448FFF7C0FA05B000BDFD
:100F4000002C0140001002400008014070B504462A
:100F500090F83C0000260D4601280FD0012084F8AF
:100F60003C006AB1042A1DD0082A2FD00C2A3FD099
:100F70000126002084F83C00304670BD022070BD80
:100F8000206800F00FFC2068816941F00801816150
:100F90002068816921F004018161206881692A69E2
:100FA000114311E0206800F025FC2068816941F4BC
:100FB000006181612068816921F48061816120681C
:100FC00081692A6941EA02218161D2E7206800F043
:100FD0003DFC2068C16941F00801C1612068C16918
:100FE00021F00401C1612068C1692A69114311E03F
:100FF000206800F057FC2068C16941F40061C161BC
:101000002068C16921F48061C1612068C1692A69D1
:1010100041EA0221C161ACE710B5040003D094F8A5
:101020003D0010B107E0012010BD002084F83C0015
:10103000204600F01EF8022084F83D00211D2068A3
:1010400000F05AFB012084F8460084F83E0084F842
:101050003F0084F8400084F8410084F8420084F89E
:10106000430084F8440084F8450084F83D000020E3
:1010700010BD704710B50446022249B104290ED0B4
:10108000082913D094F84100012816D0012010BD82
:1010900094F83E000128F9D184F83E200FE094F83E
:1010A0003F000128F2D184F83F2008E094F8400086
:1010B0000128EBD184F8402001E084F8412001228E
:1010C000206800F04FFB0F492068884203D1426C32
:1010D00042F4004242642068884208D0B0F1804F58
:1010E00005D00949884202D00849884204D1816864
:1010F00001F00701062903D0016841F001010160F8
:10110000002010BD002C01400004004000080040F9
:1011100070477047F8B5016804460868CA684B69AB
:1011200010F00F0F4FF0000559D003F0010602F444
:101130009077374365D0C10705D0D10503D5616CE1
:1011400041F001016164410705D5D90703D0616C05
:1011500041F002016164810705D5D90703D0616CB4
:1011600041F004016164010707D502F02001314319
:1011700003D0616C41F008016164616C00293AD0D0
:10118000800604D5900602D5204600F0FFFB2068BB
:101190004069616CC0F38010090700D460B3204639
:1011A00000F0CDFB20684069400621D5206814304E
:1011B00050E8001F21F0400140E80012002AF5D15C
:1011C000E06BA8B16D494163E06BFFF72BF9002894
:1011D00011D0E06B416B01B0BDE8F04008478306D9
:1011E0000FD593060DD52046BDE8F84000F0CEBBE4
:1011F0002046FFF78EFFF8BD2046FFF78AFF6564A3
:10120000F8BD266B2023012E7CD1C6067AD5D606E2
:1012100078D508684868009048694FF00206400693
:1012200040D5E16B086840680004000CE8D0A28D4E
:101230008242E5D9E085886920282DD020680C30CD
:1012400050E8001F21F4807140E80012002AF5D117
:101250002068143050E8001F21F0010140E800121E
:10126000002AF5D12068143050E8001F21F0400119
:1012700040E80012002AF5D184F842302563206846
:101280000C3050E8001F21F0100140E80012002A45
:10129000F5D1E06BFFF7A3F86663A08DE18D401AEE
:1012A00081B22AE0A08DE18D401A81B2E08D002844
:1012B000A6D00029A4D022680C3252E8000F20F4F6
:1012C000907042E80007002FF5D12068143050E8F4
:1012D000002F22F0010240E80027002FF5D184F80A
:1012E0004230256320680C3050E8002F22F01002B5
:1012F00040E80023002BF5D166632046FFF708FF86
:10130000F8BDFFE705062BD5150629D594F8410051
:101310002128F5D1A068B0F5805F01D12069B0B176
:10132000206A411C2162216800784860E08C401EE0
:101330000004000CE084E3D12068C16821F0800142
:10134000C1602068C16841F04001C160D8E7206AEF
:101350000088C0F308004860206A801C2062E5E72E
:101360004006CDD55006CBD5CA68204622F04002B3
:10137000CA6084F8413000F097F8C1E72F190008DF
:1013800070B5040004D094F84100002510B106E0C7
:10139000012070BD84F84050204600F023F824203E
:1013A00084F841002068C16821F40051C1602046E2
:1013B00000F04EFB2068016921F490410161206832
:1013C000416921F02A0141612068C16841F400515E
:1013D000C1606564202084F8410084F842006563A0
:1013E000002070BD30B585B00024009401940294B3
:1013F000039400681B49884232D11B48816941F43B
:1014000080418161816901F480410491816941F0E9
:10141000080181618069154D00F0080004904020AA
:101420000090022001900320039069462846FFF7B0
:1014300045F88020CDE90004694628460294FFF76C
:101440003DF80B48416841F0E06141F00401416022
:10145000002201212520FFF793F92520FFF782F9CB
:1014600005B030BD0038014000100240000C0140C2
:101470000000014090F84230202B01D0022070473C
:1014800021B11AB10023036300F03EBB0120704775
:101490000349012002460870891C0248FFF7EABF91
:1014A000000000205C0000207047FEE770B5154684
:1014B00002000C468868898903D0012A07D0022AD5
:1014C00004D00022FFF7EAF8002103E00022FFF732
:1014D000E5F829462046BDE8704000F0C1B830B4B8
:1014E000029C80E80E008481084630BC1146FFF75C
:1014F000C1BD000070B586B0002418480094019466
:1015000002940394816941F020018161816901F0B5
:1015100020010491816941F008018161816901F034
:1015200008010491816941F00401816180690C4ED8
:1015300000F004004FF47045049000222946304624
:10154000FFF7ACF801200095CDE9010402200390DB
:1015500069463046FEF7B2FF06B070BD001002408B
:10156000000C014010B596B000240F941094119413
:10157000129413941C2168461494FEF725FE202132
:1015800007A8FEF721FE3448324901603F21C0E937
:10159000011440F2CF71C0E9031444618461FFF784
:1015A000FFFB08B172B6FEE74FF480500F900FA911
:1015B0002948FFF737FC08B172B6FEE72648FFF767
:1015C0002BFD08B172B6FEE7139413A922481494B8
:1015D000FFF7B2FB08B172B6FEE76020CDE9000468
:1015E0000294039404940594002269461A480694D0
:1015F000FFF7ACFC08B172B6FEE704226946164854
:10160000FFF7A4FC08B172B6FEE70822694612484B
:10161000FFF79CFC08B172B6FEE70C2269460E4843
:10162000FFF794FC08B172B6FEE70794089409949A
:101630004FF400500A94CDE90B4007A906480E94D8
:10164000FFF750FB08B172B6FEE70348FFF758FCFE
:1016500016B010BD002C014014000020FEE7FEE78C
:1016600002681268D36AC1F164014B436421B3FB81
:10167000F1F1406838B1042807D0082807D00C28B9
:1016800000D1116470475163704791637047D16313
:10169000704770477047FFF70DB830B58FB02821FD
:1016A0006846FEF791FD14210AA8FEF78DFD02257C
:1016B0000120049000951020059000244FF4601044
:1016C000CDE9084007956846FFF768F908B172B69A
:1016D000FEE70F20CDE90A054FF48060CDE90C400C
:1016E00002210AA80E94FFF77DF8002801D072B6F7
:1016F000FEE70FB030BD7047F0B50268164B174CCF
:10170000174D4FF08047984205D0B84203D0A04211
:1017100001D0A84203D122F070064A6832439842B1
:1017200005D0B84203D0A04201D0A84203D122F490
:101730004074CA6822434C6922F08002224302604E
:101740008A68C2620A688262984201D109690163AB
:1017500001214161F0BD0000002C01400004004067
:101760000008004010B501F01F030121046A9940F0
:101770008C430462016A9A401143016210BD10B5A6
:10178000846842EA032224F47F440A4322438260AD
:1017900010BD826822F070020A4342F007018160A6
:1017A0007047000030B5036A026A22F0010202624B
:1017B0004268846924F073050C682C4323F0020509
:1017C0008B682B430A4DA8420BD123F00805CB6848
:1017D00022F440722B434D6923F0040315438A69B8
:1017E0002A434260846149684163036230BD00005E
:1017F000002C014030B5026A036A23F01003036233
:10180000436884690D6824F4E64444EA05248D683D
:1018100022F0200242EA05120B4DA8420ED1CD68FB
:1018200022F0800242EA05124D6923F4406343EA44
:1018300085038D6922F0400243EA85034360846199
:1018400049688163026230BD002C014030B5036AF3
:10185000026A22F4807202624268C46923F400734F
:1018600024F073050C682C438D6843EA05230C4D66
:10187000A8420ED1CD6823F4006343EA05234D69E5
:1018800022F4405242EA05128D6923F4806342EA51
:1018900005124260C4614968C163036230BD000043
:1018A000002C014030B5046A026A22F480520262C0
:1018B0004268C3690D6823F4E64343EA05238D6853
:1018C00024F4005444EA0534064DA84204D14D697D
:1018D00022F4804242EA85124260C3614968016491
:1018E000046230BD002C014010B5036A046A24F084
:1018F00001040462846924F0F00444EA021423F031
:101900000A020A438461026210BD10B5036A046AC8
:1019100024F010040462846923F0A00324F47044CA
:1019200044EA023243EA01118261016210BD10B53E
:10193000406A0021C185C184FFF7EBFB10BD01683F
:101940000C3151E8002F22F4907241E80023002B63
:10195000F5D10168143151E8002F22F0010241E86D
:101960000023002BF5D1016B012909D101680C314D
:1019700051E8002F22F0100241E80023002BF5D19E
:10198000202180F8421000210163704708B590F8CB
:101990004210222901D0022008BD82684FF48053F2
:1019A0009A4201D1016921B1816A9A421BD04AB1A0
:1019B0000AE00268816A5268C2F308020A80816AFA
:1019C000891C08E0026972B10268526802F07F0265
:1019D0000A70816A491C8162C18D491E0904090C83
:1019E000C18503D01BE002685268F1E70168CA684C
:1019F00022F02002CA600168CA6822F48072CA60BC
:101A000001684A6922F001024A61202180F84210EF
:101A100000214163026B012A03D0FFF739FD00204A
:101A200008BD016301680C3151E8002F22F010025B
:101A300041E80023002BF5D101680A68D20602D5DF
:101A40000A6849680091818DFFF762FBE7E70000B3
:101A500070B5044600680169E26821F44051114301
:101A600001612169A0680843616908432168CA6867
:101A700041F20C639A430243CA6020684169A2693B
:101A800021F44071114341611E492068884202D10E
:101A9000FEF74EFF01E0FEF73BFF00EBC00101EB5C
:101AA0000012606864218000B2FBF0F3B3FBF1F335
:101AB0006FF018067343B2FBF0F5B2FBF0F605EBDE
:101AC0008305322303EB0515B5FBF1F5B6FBF1F603
:101AD00005F0F00505EB0615B2FBF0F6B2FBF0F0F1
:101AE000B0FBF1F06FF01802504306EB800003EBFF
:101AF0000010B0FBF1F0216800F00F00284488606E
:101B000070BD00000038014081628285C2850021DD
:101B10004164222180F84210016921B10168CA683C
:101B200042F48072CA6001684A6942F001024A6167
:101B30000068C16841F02001C160002070470000CA
:101B40000148FFF7E7BA00005C000020FEE7090744
:101B5000090E002804DB00F1E02080F80014704733
:101B600000F00F0000F1E02080F8141D7047000025
:101B70000EB5FEF7A7FDFFF790FDFFF7BBFCFFF7E3
:101B8000F1FC44484249002501604FF41651C0E978
:101B900001150C21C560C0E904518561C561FFF7DD
:101BA000EFFB08B172B6FEE73A4E3B4C7836A6F131
:101BB000100760780097CDE90160A6F12003A3F13A
:101BC0001002E178A2F19000FEF7C6FB0122A11CF1
:101BD0003048FFF74FFC20780028FCD0A07852282E
:101BE00030D006DC422820D0462813D04C2806D11D
:101BF00033E053283CD0582845D0782843D071286A
:101C000043D03038092803D800EB800040006070D2
:101C10002570E0E7607800971E4BCDE901605833EE
:101C2000A3F11002E178002009E060780097CDE987
:101C30000160184BE1785833A3F110020120FEF740
:101C400027FBE5E760780097124BCDE90160583338
:101C5000A3F11002E1780320F1E7607800970D4BC3
:101C6000CDE901605833A3F11002E1780220E6E7E4
:101C700060780097074BCDE901605833A3F110025B
:101C8000E1780420DBE7E070C2E76420BFE70000F2
:101C9000003801405C000020000000200102020327
:101CA0000405060708090A0B0C0D0E0F10100000A2
:101CB00000000000000001020304060708090000FC
:101CC0000000010203040000E81C000800000020DE
:101CD0001400000028010008FC1C0008140000206B
:101CE000340700004401000800000000010000006B
:0C1CF00010000000000000000024F400C0
:04000005080000ED02
:00000001FF
